{
    "contractName": "RealestateToken",
    "abi": [
        {
            "anonymous": false,
            "inputs": [
                {
                    "indexed": true,
                    "internalType": "uint256",
                    "name": "propertyId",
                    "type": "uint256"
                },
                {
                    "indexed": true,
                    "internalType": "address",
                    "name": "owner",
                    "type": "address"
                },
                {
                    "indexed": false,
                    "internalType": "uint256",
                    "name": "totalSupply",
                    "type": "uint256"
                },
                {
                    "indexed": false,
                    "internalType": "uint256",
                    "name": "tokenPrice",
                    "type": "uint256"
                },
                {
                    "indexed": false,
                    "internalType": "uint256",
                    "name": "sharesRemaining",
                    "type": "uint256"
                },
                {
                    "indexed": false,
                    "internalType": "string",
                    "name": "description",
                    "type": "string"
                }
            ],
            "name": "PropertyCreated",
            "type": "event"
        },
        {
            "anonymous": false,
            "inputs": [
                {
                    "indexed": true,
                    "internalType": "uint256",
                    "name": "propertyId",
                    "type": "uint256"
                },
                {
                    "indexed": true,
                    "internalType": "address",
                    "name": "buyer",
                    "type": "address"
                },
                {
                    "indexed": false,
                    "internalType": "uint256",
                    "name": "amount",
                    "type": "uint256"
                }
            ],
            "name": "TokenBought",
            "type": "event"
        },
        {
            "inputs": [
                {
                    "internalType": "uint256",
                    "name": "",
                    "type": "uint256"
                }
            ],
            "name": "properties",
            "outputs": [
                {
                    "internalType": "address",
                    "name": "owner",
                    "type": "address"
                },
                {
                    "internalType": "uint256",
                    "name": "totalSupply",
                    "type": "uint256"
                },
                {
                    "internalType": "uint256",
                    "name": "tokenPrice",
                    "type": "uint256"
                },
                {
                    "internalType": "uint256",
                    "name": "sharesRemaining",
                    "type": "uint256"
                },
                {
                    "internalType": "string",
                    "name": "description",
                    "type": "string"
                }
            ],
            "stateMutability": "view",
            "type": "function",
            "constant": true
        },
        {
            "inputs": [],
            "name": "propertyCount",
            "outputs": [
                {
                    "internalType": "uint256",
                    "name": "",
                    "type": "uint256"
                }
            ],
            "stateMutability": "view",
            "type": "function",
            "constant": true
        },
        {
            "inputs": [
                {
                    "internalType": "uint256",
                    "name": "_totalSupply",
                    "type": "uint256"
                },
                {
                    "internalType": "uint256",
                    "name": "_tokenPrice",
                    "type": "uint256"
                },
                {
                    "internalType": "string",
                    "name": "_description",
                    "type": "string"
                }
            ],
            "name": "createProperty",
            "outputs": [],
            "stateMutability": "nonpayable",
            "type": "function"
        },
        {
            "inputs": [
                {
                    "internalType": "uint256",
                    "name": "_propertyId",
                    "type": "uint256"
                }
            ],
            "name": "buyToken",
            "outputs": [],
            "stateMutability": "payable",
            "type": "function",
            "payable": true
        },
        {
            "inputs": [
                {
                    "internalType": "address",
                    "name": "_account",
                    "type": "address"
                },
                {
                    "internalType": "uint256",
                    "name": "_propertyId",
                    "type": "uint256"
                }
            ],
            "name": "balanceOf",
            "outputs": [
                {
                    "internalType": "uint256",
                    "name": "",
                    "type": "uint256"
                }
            ],
            "stateMutability": "view",
            "type": "function",
            "constant": true
        },
        {
            "inputs": [
                {
                    "internalType": "address",
                    "name": "_owner",
                    "type": "address"
                }
            ],
            "name": "getRemainingShares",
            "outputs": [
                {
                    "internalType": "uint256",
                    "name": "",
                    "type": "uint256"
                }
            ],
            "stateMutability": "view",
            "type": "function",
            "constant": true
        }
    ],
    "bytecode": "0x608060405234801561001057600080fd5b50611249806100206000396000f3fe6080604052600436106100545760003560e01c8062fdd58e146100595780631644a7b11461009657806324fdaf76146100bf5780632d296bf1146100fc578063c361a33514610118578063f7b1080814610143575b600080fd5b34801561006557600080fd5b50610080600480360381019061007b9190610899565b610184565b60405161008d91906108e8565b60405180910390f35b3480156100a257600080fd5b506100bd60048036038101906100b89190610a49565b6101e1565b005b3480156100cb57600080fd5b506100e660048036038101906100e19190610ab8565b6102de565b6040516100f391906108e8565b60405180910390f35b61011660048036038101906101119190610ae5565b61039e565b005b34801561012457600080fd5b5061012d61070d565b60405161013a91906108e8565b60405180910390f35b34801561014f57600080fd5b5061016a60048036038101906101659190610ae5565b610713565b60405161017b959493929190610ba0565b60405180910390f35b600080600083815260200190815260200160002060050160008473ffffffffffffffffffffffffffffffffffffffff1673ffffffffffffffffffffffffffffffffffffffff16815260200190815260200160002054905092915050565b600160008154809291906101f490610c29565b9190505550600080600060015481526020019081526020016000209050338160000160006101000a81548173ffffffffffffffffffffffffffffffffffffffff021916908373ffffffffffffffffffffffffffffffffffffffff160217905550838160010181905550838160030181905550828160020181905550818160040190816102809190610e7d565b503373ffffffffffffffffffffffffffffffffffffffff166001547f6c10e1093364b374541091f49396ee9ac4988fe073d0e70530d3150345a442da868688876040516102d09493929190610f4f565b60405180910390a350505050565b600080600090506000600190505b6001548111610394578373ffffffffffffffffffffffffffffffffffffffff1660008083815260200190815260200160002060000160009054906101000a900473ffffffffffffffffffffffffffffffffffffffff1673ffffffffffffffffffffffffffffffffffffffff160361038157600080828152602001908152602001600020600301548261037e9190610f9b565b91505b808061038c90610c29565b9150506102ec565b5080915050919050565b60008060008381526020019081526020016000209050600073ffffffffffffffffffffffffffffffffffffffff168160000160009054906101000a900473ffffffffffffffffffffffffffffffffffffffff1673ffffffffffffffffffffffffffffffffffffffff1603610447576040517f08c379a000000000000000000000000000000000000000000000000000000000815260040161043e9061101b565b60405180910390fd5b806002015434101561048e576040517f08c379a000000000000000000000000000000000000000000000000000000000815260040161048590611087565b60405180910390fd5b60008160030154116104d5576040517f08c379a00000000000000000000000000000000000000000000000000000000081526004016104cc906110f3565b60405180910390fd5b60008160020154346104e79190611142565b90508160030154811115610530576040517f08c379a0000000000000000000000000000000000000000000000000000000008152600401610527906111bf565b60405180910390fd5b8082600301600082825461054491906111df565b92505081905550808260050160003373ffffffffffffffffffffffffffffffffffffffff1673ffffffffffffffffffffffffffffffffffffffff168152602001908152602001600020600082825461059c9190610f9b565b925050819055508160060160405180604001604052803373ffffffffffffffffffffffffffffffffffffffff16815260200183815250908060018154018082558091505060019003906000526020600020906002020160009091909190915060008201518160000160006101000a81548173ffffffffffffffffffffffffffffffffffffffff021916908373ffffffffffffffffffffffffffffffffffffffff1602179055506020820151816001015550508160000160009054906101000a900473ffffffffffffffffffffffffffffffffffffffff1673ffffffffffffffffffffffffffffffffffffffff166108fc349081150290604051600060405180830381858888f193505050501580156106b8573d6000803e3d6000fd5b503373ffffffffffffffffffffffffffffffffffffffff16837f787925e050e8cb8dba61a675397ced37ba5304fc76b70c50b62753eed7c9ef648360405161070091906108e8565b60405180910390a3505050565b60015481565b60006020528060005260406000206000915090508060000160009054906101000a900473ffffffffffffffffffffffffffffffffffffffff169080600101549080600201549080600301549080600401805461076e90610ca0565b80601f016020809104026020016040519081016040528092919081815260200182805461079a90610ca0565b80156107e75780601f106107bc576101008083540402835291602001916107e7565b820191906000526020600020905b8154815290600101906020018083116107ca57829003601f168201915b5050505050905085565b6000604051905090565b600080fd5b600080fd5b600073ffffffffffffffffffffffffffffffffffffffff82169050919050565b600061083082610805565b9050919050565b61084081610825565b811461084b57600080fd5b50565b60008135905061085d81610837565b92915050565b6000819050919050565b61087681610863565b811461088157600080fd5b50565b6000813590506108938161086d565b92915050565b600080604083850312156108b0576108af6107fb565b5b60006108be8582860161084e565b92505060206108cf85828601610884565b9150509250929050565b6108e281610863565b82525050565b60006020820190506108fd60008301846108d9565b92915050565b600080fd5b600080fd5b6000601f19601f8301169050919050565b7f4e487b7100000000000000000000000000000000000000000000000000000000600052604160045260246000fd5b6109568261090d565b810181811067ffffffffffffffff821117156109755761097461091e565b5b80604052505050565b60006109886107f1565b9050610994828261094d565b919050565b600067ffffffffffffffff8211156109b4576109b361091e565b5b6109bd8261090d565b9050602081019050919050565b82818337600083830152505050565b60006109ec6109e784610999565b61097e565b905082815260208101848484011115610a0857610a07610908565b5b610a138482856109ca565b509392505050565b600082601f830112610a3057610a2f610903565b5b8135610a408482602086016109d9565b91505092915050565b600080600060608486031215610a6257610a616107fb565b5b6000610a7086828701610884565b9350506020610a8186828701610884565b925050604084013567ffffffffffffffff811115610aa257610aa1610800565b5b610aae86828701610a1b565b9150509250925092565b600060208284031215610ace57610acd6107fb565b5b6000610adc8482850161084e565b91505092915050565b600060208284031215610afb57610afa6107fb565b5b6000610b0984828501610884565b91505092915050565b610b1b81610825565b82525050565b600081519050919050565b600082825260208201905092915050565b60005b83811015610b5b578082015181840152602081019050610b40565b60008484015250505050565b6000610b7282610b21565b610b7c8185610b2c565b9350610b8c818560208601610b3d565b610b958161090d565b840191505092915050565b600060a082019050610bb56000830188610b12565b610bc260208301876108d9565b610bcf60408301866108d9565b610bdc60608301856108d9565b8181036080830152610bee8184610b67565b90509695505050505050565b7f4e487b7100000000000000000000000000000000000000000000000000000000600052601160045260246000fd5b6000610c3482610863565b91507fffffffffffffffffffffffffffffffffffffffffffffffffffffffffffffffff8203610c6657610c65610bfa565b5b600182019050919050565b7f4e487b7100000000000000000000000000000000000000000000000000000000600052602260045260246000fd5b60006002820490506001821680610cb857607f821691505b602082108103610ccb57610cca610c71565b5b50919050565b60008190508160005260206000209050919050565b60006020601f8301049050919050565b600082821b905092915050565b600060088302610d337fffffffffffffffffffffffffffffffffffffffffffffffffffffffffffffffff82610cf6565b610d3d8683610cf6565b95508019841693508086168417925050509392505050565b6000819050919050565b6000610d7a610d75610d7084610863565b610d55565b610863565b9050919050565b6000819050919050565b610d9483610d5f565b610da8610da082610d81565b848454610d03565b825550505050565b600090565b610dbd610db0565b610dc8818484610d8b565b505050565b5b81811015610dec57610de1600082610db5565b600181019050610dce565b5050565b601f821115610e3157610e0281610cd1565b610e0b84610ce6565b81016020851015610e1a578190505b610e2e610e2685610ce6565b830182610dcd565b50505b505050565b600082821c905092915050565b6000610e5460001984600802610e36565b1980831691505092915050565b6000610e6d8383610e43565b9150826002028217905092915050565b610e8682610b21565b67ffffffffffffffff811115610e9f57610e9e61091e565b5b610ea98254610ca0565b610eb4828285610df0565b600060209050601f831160018114610ee75760008415610ed5578287015190505b610edf8582610e61565b865550610f47565b601f198416610ef586610cd1565b60005b82811015610f1d57848901518255600182019150602085019450602081019050610ef8565b86831015610f3a5784890151610f36601f891682610e43565b8355505b6001600288020188555050505b505050505050565b6000608082019050610f6460008301876108d9565b610f7160208301866108d9565b610f7e60408301856108d9565b8181036060830152610f908184610b67565b905095945050505050565b6000610fa682610863565b9150610fb183610863565b9250828201905080821115610fc957610fc8610bfa565b5b92915050565b7f50726f706572747920646f6573206e6f74206578697374000000000000000000600082015250565b6000611005601783610b2c565b915061101082610fcf565b602082019050919050565b6000602082019050818103600083015261103481610ff8565b9050919050565b7f496e73756666696369656e742066756e64730000000000000000000000000000600082015250565b6000611071601283610b2c565b915061107c8261103b565b602082019050919050565b600060208201905081810360008301526110a081611064565b9050919050565b7f4e6f207368617265732072656d61696e696e6700000000000000000000000000600082015250565b60006110dd601383610b2c565b91506110e8826110a7565b602082019050919050565b6000602082019050818103600083015261110c816110d0565b9050919050565b7f4e487b7100000000000000000000000000000000000000000000000000000000600052601260045260246000fd5b600061114d82610863565b915061115883610863565b92508261116857611167611113565b5b828204905092915050565b7f4e6f7420656e6f7567682073686172657320617661696c61626c650000000000600082015250565b60006111a9601b83610b2c565b91506111b482611173565b602082019050919050565b600060208201905081810360008301526111d88161119c565b9050919050565b60006111ea82610863565b91506111f583610863565b925082820390508181111561120d5761120c610bfa565b5b9291505056fea2646970667358221220a25443e079e6d1c143bbebf2dc55f385e2d64a60f9990c4682aa832c364db9b364736f6c63430008120033",
    "immutableReferences": {},
    "source": "// SPDX-License-Identifier: MIT\r\npragma solidity ^0.8.0;\r\n\r\ncontract RealestateToken {\r\n    struct Stakeholder {\r\n        address account;\r\n        uint256 balance;\r\n    }\r\n    \r\n    struct Property {\r\n        address owner;\r\n        uint256 totalSupply;\r\n        uint256 tokenPrice;\r\n        uint256 sharesRemaining;\r\n        string description; // New field for property description\r\n        mapping(address => uint256) balances;\r\n        Stakeholder[] stakeholders;\r\n    }\r\n\r\n    mapping(uint256 => Property) public properties;\r\n    uint256 public propertyCount;\r\n\r\n    event PropertyCreated(uint256 indexed propertyId, address indexed owner, uint256 totalSupply, uint256 tokenPrice, uint256 sharesRemaining, string description);\r\n    event TokenBought(uint256 indexed propertyId, address indexed buyer, uint256 amount);\r\n    \r\n    function createProperty(uint256 _totalSupply, uint256 _tokenPrice, string memory _description) external {\r\n        propertyCount++;\r\n        Property storage newProperty = properties[propertyCount];\r\n        newProperty.owner = msg.sender;\r\n        newProperty.totalSupply = _totalSupply;\r\n        newProperty.sharesRemaining = _totalSupply; // Initially, all shares are available\r\n        newProperty.tokenPrice = _tokenPrice;\r\n        newProperty.description = _description;\r\n        \r\n        emit PropertyCreated(propertyCount, msg.sender, _totalSupply, _tokenPrice, _totalSupply, _description);\r\n    }\r\n    \r\n    function buyToken(uint256 _propertyId) external payable {\r\n        Property storage property = properties[_propertyId];\r\n        require(property.owner != address(0), \"Property does not exist\");\r\n        require(msg.value >= property.tokenPrice, \"Insufficient funds\");\r\n        require(property.sharesRemaining > 0, \"No shares remaining\");\r\n        \r\n        uint256 tokensToBuy = msg.value / property.tokenPrice;\r\n        require(tokensToBuy <= property.sharesRemaining, \"Not enough shares available\");\r\n        \r\n        property.sharesRemaining -= tokensToBuy; // Decrement shares remaining\r\n        \r\n        // Update buyer's balance\r\n        property.balances[msg.sender] += tokensToBuy;\r\n        \r\n        // Add buyer to stakeholders list\r\n        property.stakeholders.push(Stakeholder(msg.sender, tokensToBuy));\r\n        \r\n        // Transfer funds to owner\r\n        payable(property.owner).transfer(msg.value);\r\n        \r\n        emit TokenBought(_propertyId, msg.sender, tokensToBuy);\r\n    }\r\n    \r\n    function balanceOf(address _account, uint256 _propertyId) external view returns (uint256) {\r\n        return properties[_propertyId].balances[_account];\r\n    }\r\n    \r\n    function getRemainingShares(address _owner) external view returns (uint256) {\r\n        uint256 remainingShares = 0;\r\n        for (uint256 i = 1; i <= propertyCount; i++) {\r\n            if (properties[i].owner == _owner) {\r\n                remainingShares += properties[i].sharesRemaining;\r\n            }\r\n        }\r\n        return remainingShares;\r\n    }\r\n}\r\n",
    "sourcePath": "C:\\Users\\MSI\\Desktop\\PFA\\ContractManager\\contracts\\RealestateToken.sol",
    "compiler": {
        "name": "solc",
        "version": "0.8.18+commit.87f61d96.Emscripten.clang"
    },
    "schemaVersion": "3.4.16",
    "updatedAt": "2024-02-22T12:04:23.040Z",
    "networkType": "ethereum",
    "devdoc": {
        "kind": "dev",
        "methods": {},
        "version": 1
    },
    "userdoc": {
        "kind": "user",
        "methods": {},
        "version": 1
    }
}